:020000040800F2
:1000000000000220D9300008F12C0008F72C00086D
:10001000FD2C0008032D0008092D00080000000039
:100020000000000000000000000000000F2D00088C
:100030001D2D0008000000002B2D0008392D0008A0
:100040002931000829310008293100082931000828
:100050002931000829310008293100082931000818
:100060002931000829310008293100082931000808
:1000700029310008293100082931000829310008F8
:1000800029310008293100082931000829310008E8
:1000900029310008293100082931000829310008D8
:1000A00029310008293100082931000829310008C8
:1000B000452D0008293100082931000829310008A0
:1000C00029310008293100082931000829310008A8
:1000D0002931000829310008293100082931000898
:1000E0002931000829310008293100082931000888
:1000F0002931000829310008293100082931000878
:100100002931000829310008293100082931000867
:100110002931000829310008293100082931000857
:100120002931000829310008293100082931000847
:100130002931000829310008293100082931000837
:100140002931000829310008293100082931000827
:100150002931000829310008293100082931000817
:100160002931000829310008293100082931000807
:100170002931000829310008293100080000000059
:080180002931000829310008B3
:1001900010B5054C237833B9044B13B10448AFF3C1
:1001A00000800123237010BDE40100200000000046
:1001B000EC0D010808B5034B1BB103490348AFF32D
:1001C000008008BD00000000E8010020EC0D0108DF
:1001D00001F0FF01102A2BDB10F0070F08D010F8F8
:1001E000013B013A8B422DD010F0070F42B3F6D1FC
:1001F000F0B441EA012141EA014122F007047FF015
:1002000000070023F0E80256083C85EA010586EA6B
:10021000010685FA47F5A3FA87F586FA47F6A5FAA7
:1002200087F68EB9EED1F0BC01F0FF0102F00702B3
:1002300032B110F8013B013A83EA010313B1F8D15E
:100240000020704701387047002D06BF354603383F
:10025000073815F0010F07D1013015F4807F02BF78
:10026000013015F4C03F0130F0BC0138704700BFC9
:10027000034613F8012B002AFBD1181A01387047E6
:1002800081F0004102E000BF83F0004330B54FEA47
:1002900041044FEA430594EA050F08BF90EA020FB4
:1002A0001FBF54EA000C55EA020C7FEA645C7FEA47
:1002B000655C00F0E2804FEA5454D4EB5555B8BF6A
:1002C0006D420CDD2C4480EA020281EA030382EADB
:1002D000000083EA010180EA020281EA0303362D6D
:1002E00088BF30BD11F0004F4FEA01314FF4801C40
:1002F0004CEA113102D0404261EB410113F0004F52
:100300004FEA03334CEA133302D0524263EB430308
:1003100094EA050F00F0A780A4F10104D5F1200EA6
:100320000DDB02FA0EFC22FA05F2801841F1000101
:1003300003FA0EF2801843FA05F359410EE0A5F1D5
:1003400020050EF1200E012A03FA0EFC28BF4CF006
:10035000020C43FA05F3C01851EBE37101F00045BC
:1003600007D54FF0000EDCF1000C7EEB00006EEBC9
:100370000101B1F5801F1BD3B1F5001F0CD3490853
:100380005FEA30004FEA3C0C04F101044FEA4452AA
:1003900012F5800F80F09A80BCF1004F08BF5FEA31
:1003A000500C50F1000041EB045141EA050130BD11
:1003B0005FEA4C0C404141EB0101013C28BFB1F523
:1003C000801FE9D291F0000F04BF01460020B1FA6E
:1003D00081F308BF2033A3F10B03B3F120020CDA41
:1003E0000C3208DD02F1140CC2F10C0201FA0CF01F
:1003F00021FA02F10CE002F11402D8BFC2F1200C84
:1004000001FA02F120FA0CFCDCBF41EA0C01904039
:10041000E41AA2BF01EB0451294330BD6FEA040482
:100420001F3C1CDA0C340EDC04F11404C4F120026D
:1004300020FA04F001FA02F340EA030021FA04F37F
:1004400045EA030130BDC4F10C04C4F1200220FAD6
:1004500002F001FA04F340EA0300294630BD21FA14
:1004600004F0294630BD94F0000F83F4801306BFDA
:1004700081F480110134013D4EE77FEA645C18BFCE
:100480007FEA655C29D094EA050F08BF90EA020F65
:1004900005D054EA000C04BF1946104630BD91EA5D
:1004A000030F1EBF0021002030BD5FEA545C05D160
:1004B0004000494128BF41F0004130BD14F580049F
:1004C0003CBF01F5801130BD01F0004545F0FE4113
:1004D00041F470014FF0000030BD7FEA645C1ABF48
:1004E000194610467FEA655C1CBF0B46024650EA7F
:1004F000013406BF52EA033591EA030F41F40021AB
:1005000030BD00BF90F0000F04BF0021704730B530
:100510004FF4806404F132044FF000054FF0000105
:1005200050E700BF90F0000F04BF0021704730B5C6
:100530004FF4806404F1320410F0004548BF40429B
:100540004FF000013EE700BF42004FEAE2014FEAF0
:1005500031014FEA02701FBF12F07F4393F07F4FCB
:1005600081F06051704732F07F4208BF704793F0CE
:100570007F4F04BF41F40021704730B54FF46074E1
:1005800001F0004521F000411CE700BF50EA0102E4
:1005900008BF704730B54FF000050AE050EA01028D
:1005A00008BF704730B511F0004502D5404261EBFD
:1005B00041014FF4806404F132045FEA915C3FF43E
:1005C000D8AE4FF003025FEADC0C18BF03325FEADB
:1005D000DC0C18BF033202EBDC02C2F1200300FA8C
:1005E00003FC20FA02F001FA03FE40EA0E0021FAB1
:1005F00002F11444BDE600BF70B54FF0FF0C4CF49F
:10060000E06C1CEA11541DBF1CEA135594EA0C0F50
:1006100095EA0C0F00F0DEF82C4481EA030621EA8B
:100620004C5123EA4C5350EA013518BF52EA0335C6
:1006300041F4801143F4801338D0A0FB02CE4FF078
:100640000005E1FB02E506F00042E0FB03E54FF0A8
:100650000006E1FB03569CF0000F18BF4EF0010EA0
:10066000A4F1FF04B6F5007F64F5407404D25FEA9C
:100670004E0E6D4146EB060642EAC62141EA55514F
:100680004FEAC52040EA5E504FEACE2EB4F1FD0C91
:1006900088BFBCF5E06F1ED8BEF1004F08BF5FEA0F
:1006A000500E50F1000041EB045170BD06F00046C1
:1006B00046EA010140EA020081EA0301B4EB5C046E
:1006C000C2BFD4EB0C0541EA045170BD41F4801166
:1006D0004FF0000E013C00F3AB8014F1360FDEBF8B
:1006E000002001F0004170BDC4F10004203C35DA67
:1006F0000C341BDC04F11404C4F1200500FA05F3EA
:1007000020FA04F001FA05F240EA020001F000428A
:1007100021F0004110EBD37021FA04F642EB060100
:100720005EEA430E08BF20EAD37070BDC4F10C042A
:10073000C4F1200500FA04F320FA05F001FA04F2EE
:1007400040EA020001F0004110EBD37041F10001DA
:100750005EEA430E08BF20EAD37070BDC4F12005E5
:1007600000FA05F24EEA020E20FA04F301FA05F24D
:1007700043EA020321FA04F001F0004121FA04F2F5
:1007800020EA020000EBD3705EEA430E08BF20EAC5
:10079000D37070BD94F0000F0FD101F000464000FF
:1007A00041EB010111F4801F08BF013CF7D041EA81
:1007B000060195F0000F18BF704703F00046520085
:1007C00043EB030313F4801F08BF013DF7D043EA56
:1007D0000603704794EA0C0F0CEA135518BF95EA0C
:1007E0000C0F0CD050EA410618BF52EA4306D1D193
:1007F00081EA030101F000414FF0000070BD50EAB2
:10080000410606BF1046194652EA430619D094EA3B
:100810000C0F02D150EA013613D195EA0C0F05D125
:1008200052EA03361CBF104619460AD181EA030179
:1008300001F0004141F0FE4141F470014FF0000031
:1008400070BD41F0FE4141F4780170BD70B54FF0CC
:10085000FF0C4CF4E06C1CEA11541DBF1CEA13554C
:1008600094EA0C0F95EA0C0F00F0A7F8A4EB05042E
:1008700081EA030E52EA03354FEA013100F0888025
:100880004FEA03334FF0805545EA131343EA1263EE
:100890004FEA022245EA111545EA10654FEA0026A3
:1008A0000EF000419D4208BF964244F1FD0404F55C
:1008B000407402D25B084FEA3202B61A65EB0305B8
:1008C0005B084FEA32024FF480104FF4002CB6EB75
:1008D000020E75EB030E22BFB61A754640EA0C00F5
:1008E0005B084FEA3202B6EB020E75EB030E22BF35
:1008F000B61A754640EA5C005B084FEA3202B6EB76
:10090000020E75EB030E22BFB61A754640EA9C0034
:100910005B084FEA3202B6EB020E75EB030E22BF04
:10092000B61A754640EADC0055EA060E18D04FEAC2
:10093000051545EA16754FEA06164FEAC30343EA62
:1009400052734FEAC2025FEA1C1CC0D111F4801F2F
:100950000BD141EA00014FF000004FF0004CB6E728
:1009600011F4801F04BF01430020B4F1FD0C88BFC7
:10097000BCF5E06F3FF6AFAEB5EB030C04BFB6EBD2
:10098000020C5FEA500C50F1000041EB045170BDC5
:100990000EF0004E4EEA113114EB5C04C2BFD4EBF2
:1009A0000C0541EA045170BD41F480114FF0000E76
:1009B000013C90E645EA060E8DE60CEA135594EAF2
:1009C0000C0F08BF95EA0C0F3FF43BAF94EA0C0FF5
:1009D0000AD150EA01347FF434AF95EA0C0F7FF46A
:1009E00025AF104619462CE795EA0C0F06D152EABE
:1009F00003353FF4FDAE1046194622E750EA4106A2
:100A000018BF52EA43067FF4C5AE50EA41047FF4B2
:100A10000DAF52EA43057FF4EBAE12E74FF0FF3C17
:100A200006E000BF4FF0010C02E000BF4FF0010CE8
:100A30004DF804CD4FEA410C7FEA6C5C4FEA430C61
:100A400018BF7FEA6C5C1BD001B050EA410C0CBFB0
:100A500052EA430C91EA030F02BF90EA020F002012
:100A6000704710F1000F91EA030F58BF994208BF79
:100A700090422CBFD8176FEAE37040F00100704736
:100A80004FEA410C7FEA6C5C02D150EA013C07D18D
:100A90004FEA430C7FEA6C5CD6D152EA033CD3D0D8
:100AA0005DF8040B704700BF8446104662468C46D2
:100AB0001946634600E000BF01B5FFF7B7FF002805
:100AC00048BF10F1000F01BD4DF808EDFFF7F4FF2E
:100AD0000CBF012000205DF808FB00BF4DF808EDB9
:100AE000FFF7EAFF34BF012000205DF808FB00BFDC
:100AF0004DF808EDFFF7E0FF94BF012000205DF8FE
:100B000008FB00BF4DF808EDFFF7CEFF94BF0120B2
:100B100000205DF808FB00BF4DF808EDFFF7C4FFAB
:100B200034BF012000205DF808FB00BF4FEA410CF4
:100B30007FEA6C5C02D150EA013C0AD14FEA430CD7
:100B40007FEA6C5C02D152EA033C02D14FF0000014
:100B500070474FF0010070474FEA410212F5001252
:100B600015D211D56FF47873B3EB625212D94FEAF4
:100B7000C12343F0004343EA505311F0004F23FADE
:100B800002F018BF404270474FF00000704750EA33
:100B9000013005D111F0004008BF6FF000407047F0
:100BA0004FF00000704700BF4A0011D212F500124A
:100BB00011D20DD56FF47873B3EB62520ED44FEAB5
:100BC000C12343F0004343EA505323FA02F0704735
:100BD0004FF00000704750EA013002D14FF0FF3073
:100BE00070474FF00000704753B94AB9002908BF59
:100BF00000281CBF4FF0FF314FF0FF3000F070B9FC
:100C0000ADF1080C6DE904CE00F006F8DDF804E063
:100C1000DDE9022304B070472DE9F047089E0D4638
:100C200004460F46002B4AD18A42944665D9B2FA4F
:100C300082F343B102FA03FCC3F120029F4020FA81
:100C400002F217439C404FEA1C4E1FFA8CF5B7FB8B
:100C5000FEF1220C0EFB117742EA074201FB05F080
:100C600090420AD91CEB020201F1FF3780F01C818F
:100C7000904240F2198102396244121AA4B2B2FBC6
:100C8000FEF00EFB102244EA024400FB05F5A542EB
:100C90000AD91CEB040400F1FF3280F00781A54261
:100CA00040F204816444023840EA0140641B0021A0
:100CB0001EB1DC400023C6E90043BDE8F0878B424B
:100CC00008D9002E00F0ED800021C6E90005084695
:100CD000BDE8F087B3FA83F1002949D1AB4202D3D2
:100CE000824200F2F880841A65EB03020120174665
:100CF000002EE2D0C6E90047DFE702B9FFDEB2FA14
:100D000082F3002B40F090808A1A4FEA1C471FFAAA
:100D10008CFE0121B2FBF7F507FB1520220C42EAFD
:100D200000420EFB05F0904208D91CEB020205F1CF
:100D3000FF3802D2904200F2CB804546121AA4B28C
:100D4000B2FBF7F007FB102244EA02440EFB00FE60
:100D5000A64508D91CEB040400F1FF3202D2A645D7
:100D600000F2BB801046A4EB0E0440EA05409FE76A
:100D7000C1F120078B4022FA07FC4CEA030C05FA6C
:100D800001F420FA07F3FD404FEA1C492343B5FB69
:100D9000F9F81FFA8CFE09FB18551C0C44EA0544AF
:100DA00008FB0EF5A54202FA01F200FA01F00BD998
:100DB0001CEB040408F1FF3A80F08880A54240F261
:100DC0008580A8F102086444641B9DB2B4FBF9F36A
:100DD00009FB134445EA044403FB0EFEA64508D96B
:100DE0001CEB040403F1FF356CD2A6456AD9023B23
:100DF000644443EA0843A3FB0295A4EB0E04AC420F
:100E0000C846AE4656D353D056B1B0EB080264EB99
:100E10000E0404FA07F7CA40CC401743C6E9007431
:100E200018460021BDE8F087C3F1200102FA03FC57
:100E300020FA01F225FA01F19D402A434FEA1C47AE
:100E40001FFA8CFEB1FBF7F007FB1015110C41EAFD
:100E5000054100FB0EF58D4204FA03F408D91CEBA2
:100E6000010100F1FF382FD28D422DD902386144A3
:100E7000491B92B2B1FBF7F507FB151142EA01429B
:100E800005FB0EF1914208D91CEB020205F1FF3877
:100E900016D2914214D9023D6244521A45EA0041E9
:100EA00038E73146304608E73946E6E61046FBE6C5
:100EB0004845A9D2B9EB020865EB0C0E013BA3E74C
:100EC0004546EAE72B4694E74046D1E7D0467BE724
:100ED000023D624432E708460AE76444023842E7CA
:100EE000704700BF80B58EB000AF07F11C03002231
:100EF0001A605A609A60DA601A615A619A613B46D8
:100F000000221A605A609A60DA601A615A619A6126
:100F10002F4B4FF020421A602D4B2E4A5A602C4B1B
:100F200006229A602A4B0022DA60294B00221A61BD
:100F3000274B10225A61264B00229A61244B002233
:100F4000DA61234B00221A62214B00225A62204BA5
:100F50004FF480529A621E4B0022DA621C4B4FF40F
:100F600080421A631A4B00225A63194B00229A637B
:100F7000174B00225A640223FB610F233B621023AC
:100F80007B620023BB621023FB6211233B630023BF
:100F90007B6304233B600F237B600923BB6000233A
:100FA000FB6010233B6111237B610023BB613A4648
:100FB00007F11C031946064808F0C3FB0346002B43
:100FC00001D001F0BDF900BF3837BD4680BD00BF7C
:100FD00000020020040100A080B586B000AF3B1DD8
:100FE00000221A605A609A60DA601A612C4B1B6802
:100FF000002B51D12A4B01221A6000233B60294B60
:101000009B6B284A43F001039363264B9B6B03F0D1
:1010100001033B603B684FF480537B600223BB605D
:101020000023FB6003233B610C237B613B1D1946BE
:101030001D4805F0D5FB4FF680737B600223BB6033
:101040000023FB6003233B610C237B613B1D19469E
:10105000164805F0C5FB4CF233737B600223BB607E
:101060000023FB6003233B610C237B613B1D19467E
:101070000F4805F0B5FB4FF480537B600223BB6043
:101080000023FB6003233B610C237B613B1D19465E
:10109000084805F0A5FB00E000BF1837BD4680BD3D
:1010A00050020020003802400014024000100240AC
:1010B000000C02400018024080B582B000AF78609A
:1010C000FFF78AFF00BF0837BD4680BD80B584B0FA
:1010D00000AF0346FB71FB79413B162B53D801A2AD
:1010E00052F823F05D1100088711000887110008ED
:1010F000791100088711000887110008871100087E
:10110000871100088711000887110008871100085F
:10111000871100088711000887110008871100084F
:101120008711000887110008871100086B1100085B
:101130008711000887110008871100084111000875
:101140000121174805F0E8FC0346FB73FB7B012BEC
:1011500014BF01230023DBB2FB7317E00421114805
:1011600005F0DAFC0346FB7310E008210D4805F09A
:10117000D3FC0346FB7309E010210A4805F0CCFCC0
:101180000346FB7302E04FF0FF3305E0FB7B012BCE
:101190000CBF01230023DBB218461037BD4680BDCB
:1011A000000002400010024080B58EB000AF07F191
:1011B000240300221A605A609A60DA601A610023E0
:1011C0003B62614B1B6B604A43F0100313635E4B41
:1011D0001B6B03F010033B623B6A0023FB615A4B1D
:1011E0001B6B594A43F004031363574B1B6B03F00B
:1011F0000403FB61FB690023BB61534B1B6B524A29
:1012000043F020031363504B1B6B03F02003BB61BF
:10121000BB6900237B614C4B1B6B4B4A43F0800343
:101220001363494B1B6B03F080037B617B690023D5
:101230003B61454B1B6B444A43F001031363424B34
:101240001B6B03F001033B613B690023FB603E4BDA
:101250001B6B3D4A43F0020313633B4B1B6B03F0D4
:101260000203FB60FB680023BB60374B1B6B364AF5
:1012700043F008031363344B1B6B03F00803BB609C
:10128000BB6800237B60304B1B6B2F4A43F040034D
:1012900013632D4B1B6B03F040037B607B680022C4
:1012A0004FF4E061294805F04FFC00224FF4004163
:1012B000274805F049FC1C237B620023BB62012305
:1012C000FB6207F124031946224805F089FA4FF41E
:1012D00080737B620123BB620223FB6202233B63B8
:1012E00007F124031946194805F07AFA4FF4C06350
:1012F0007B620123BB620023FB6200233B6307F197
:1013000024031946114805F06BFA01237B62002380
:10131000BB620223FB6207F1240319460E4805F065
:101320005FFA4FF400437B620123BB620023FB6240
:1013300000233B6307F124031946054805F050FAE2
:1013400000BF3837BD4680BD00380240001402405F
:1013500000040240001002400000024080B500AFCF
:10136000134B144A1A60124B134A5A60104B4FF435
:1013700080429A600E4B0022DA600D4B4FF480429F
:101380001A610B4B00225A61094B00229A61084BEB
:101390000022DA61064B00221A62054805F0EEFBD6
:1013A0000346002B01D000F0CBFF00BF80BD00BF83
:1013B000540200200054004000350C0080B58AB073
:1013C00000AF786007F1140300221A605A609A6037
:1013D000DA601A617B681B68194A93422BD100239B
:1013E0003B61184B1B6B174A43F002031363154B09
:1013F0001B6B03F002033B613B69C0237B6112233B
:10140000BB610023FB6103233B6204237B6207F182
:10141000140319460C4805F0E3F90023FB60094B5F
:101420001B6C084A43F400131364064B1B6C03F453
:101430000013FB60FB6800BF2837BD4680BD00BFBE
:1014400000540040003802400004024080B586B0DD
:1014500004AF78607B68124A93421DD1114B1B6820
:10146000022B19D1104B1B681A46104910480DF079
:1014700051FB0D4B1B680F4A13601F2302930C4B4B
:1014800001930C2300931423C8220021782004F038
:10149000F1FE054B00221A6000BF0837BD4680BD33
:1014A0003C0F0020B0020020A8020020080E010816
:1014B000B4020020AC02002080B483B000AF034629
:1014C000FB80B7F9063007EE903AB8EEE77ADFED29
:1014D000076AC7EE267A9FED067A67EE877AB0EE46
:1014E000670A0C37BD465DF8047B70470000004674
:1014F0000AE81C4190B5ADF6E47D04AF04F0C8FFE6
:1015000000F0B4FEFFF750FEFFF7ECFCFFF726FFFC
:1015100001F06EFD01F03CFB09F002FF01F0F4FC6C
:10152000AE4808F0A5F904F05BFB04F011FF37E0CA
:101530004FF478430293AA4B019320230093142382
:10154000C8227821282004F095FEA64B1B68A64AE5
:101550001360A24B1B685B6A1A46A24B1A60A24B2F
:101560001A68A04B1B689A421ADDA04B1B68013316
:101570009E4A13609D4B1A6807F585639C4918467F
:101580000DF0C8FA4FF47843029307F58563019391
:10159000202300931423C822A021282004F06AFEEF
:1015A00000F0D4FE0346002BC2D107F57D63A3F5FE
:1015B000826300221A600023C7F8B43F40F2FF7331
:1015C0000093C823EF22C821002004F0EFFC012380
:1015D000C7F8CC3FFBE000230293864B0193102316
:1015E00000931423C8220021002004F043FE1F238F
:1015F0000293814B0193102300931423C8221421DA
:10160000002004F037FE002302937C4B019310234B
:1016100000931423C8222821002004F02BFED7F8C1
:10162000CC3F012B0FD14BF6E0130293744B019387
:10163000102300931423C8228C21002004F01AFEEA
:101640000023C7F8CC3F002302936E4B0193102375
:1016500000931423C8223C21002004F00BFE002339
:101660000293694B0193102300931423C822502145
:10167000002004F0FFFD00230293644B019310232C
:1016800000931423C8226421002004F0F3FD0023FA
:1016900002935F4B0193102300931423C8227821F7
:1016A000002004F0E7FD002302935A4B019310231E
:1016B00000931423C822F021782004F0DBFD0023DE
:1016C0000293554B0193102300931423C8224FF427
:1016D0008271782004F0CEFD002302934F4B0193DA
:1016E000102300931423C82240F21D11782004F027
:1016F000C1FD4120FFF7EAFC0346002B13D100BFD8
:101700004120FFF7E3FC0346002BF9D04FF6FF73AF
:10171000009340F23F13EF220021002004F008FC68
:101720003F4B01221A605320FFF7D0FC0346002BE9
:1017300015D140F25F4302933A4B0193102300937B
:101740001423C8228C21002004F094FD364B79220A
:101750001A7007F57D63A3F53C6379221A7157204F
:10176000FFF7B4FC0346002B15D14FF4BC63029382
:101770002E4B0193102300931423C8228C210020A8
:1017800004F078FD284B7A221A7007F57D63A3F5E3
:101790003C637A221A714420FFF798FC0346002B21
:1017A00015D14BF6E0130293154B019310230093D0
:1017B0001423C8228C21002004F05CFD1A4B7822EF
:1017C0001A7007F57D63A3F53C6378221A71144BF8
:1017D0001B68002B3FF4FFAEF4E100BF3C0F00207C
:1017E000140E01089C0E0020A00E0020A40E002064
:1017F000200E01082C0E0108440E0108500E0108AD
:101800005C0E0108680E01087C0E0108900E0108AC
:10181000A40E0108B00E0108C00E0108CC0E01088C
:10182000B0020020DC0E010805000020EC0E0108CB
:101830000123C7F88C3F0123C7F8C83FD7F88C3F76
:10184000012B06D100F082FDC7F8C80F0023C7F8AE
:101850008C3FD7F8C83F002B21D03B1DD7F8C82FAD
:10186000B34918460DF056F94FF4784302933B1DE7
:101870000193102300931423C8220021002004F0B8
:10188000F9FC4FF6FF73009340F23F13EF2214214F
:10189000002004F04DFBA74B00221A6092E14FF4A8
:1018A00078430293A44B01930C2300931423C82282
:1018B0000021002004F0DEFC002302939F4B0193E3
:1018C000102300931423C822F021782004F0D2FCC6
:1018D000002302939A4B0193102300931423C822F0
:1018E0004FF48271782004F0C5FC00230293954BDD
:1018F0000193102300931423C82240F21D11782075
:1019000004F0B8FC00F01CFEC7F8880F8E4B1B6873
:101910009BB21A46520013449B0099B21F230293B4
:101920008A4B01930C2300931423C822C82004F08F
:10193000A1FC5720FFF7CAFB0346002B61D1824B65
:101940001B68012B56DD804B1B68013B7E4A1360F0
:101950004FF6FF73009340F23F13EF220C21C82093
:1019600004F0E6FA784B1B689BB21A465200134407
:101970009B0099B21F230293744B01930C23009395
:101980001423C822C82004F075FC6F4B1B68012B80
:1019900030D14FF6FF73009340F23F13EF220C213A
:1019A000C82004F0C5FA684B1B689BB21A46520067
:1019B00013449B0099B24FF478430293644B019314
:1019C0000C2300931423C822002004F053FC5E4B28
:1019D0001B689BB21A46520013449B0099B21F2306
:1019E00002935A4B01930C2300931423C822C8205E
:1019F00004F040FC00BF5720FFF768FB0346002BB4
:101A0000F9D05320FFF762FB0346002B2ED14E4B3B
:101A10001B68D7F8882F9A4221DB4B4B1B68013398
:101A2000494A13604FF6FF73009340F23F13EF22D1
:101A30000C21C82004F07CFA434B1B689BB21A4669
:101A4000520013449B0099B21F2302933F4B019312
:101A50000C2300931423C822C82004F00BFC00BF01
:101A60005320FFF733FB0346002BF9D04120FFF74B
:101A70002DFB0346002B40F08B8000BF4120FFF779
:101A800025FB0346002BF9D02F4B1B68012B67D198
:101A9000D7F8883F0133184600F0E6FDC7F8800FFD
:101AA000D7F8803F002B2BD04FF6FF73009340F206
:101AB0003F13EF220C21002004F03AFA4FF4784350
:101AC0000293244B01930C2300931423C82200217A
:101AD000002004F0CFFB4FF4784302931E4B019398
:101AE0000C2300931423C8220C21002004F0C2FB15
:101AF00000BF4420FFF7EAFA0346012BF9D047E084
:101B0000D7F8883F013307F58260144A18210CF09A
:101B1000CDFF4FF6FF73009340F23F13EF220021F9
:101B2000002004F005FA034B03221A6030E000BFE6
:101B3000FC0E0108B0020020100F0108B00E0108D1
:101B4000C00E0108CC0E010808000020300F01086B
:101B5000340F0108400F0108540F01085C0F010801
:101B6000B54B1B68023B07F582621146184600F030
:101B7000CBFDC7F8840F4FF6FF73009340F23F137D
:101B8000EF220021002004F0D3F9AC4B03221A60AD
:101B90004420FFF79BFA0346002B13D100BF4420DB
:101BA000FFF794FA0346002BF9D04FF6FF7300932A
:101BB00040F23F13EF220021002004F0B9F99F4BBF
:101BC00004221A609D4B1B68012B3FF431AE9B4BE6
:101BD0001B68032B40F086800023029307F5826385
:101BE00001930C2300931423C8220021002004F049
:101BF00041FB1F230293924B01930C230093142368
:101C0000C8220C21002004F035FB4FF478430293E6
:101C10008C4B01930C2300931423C822182100201D
:101C200004F028FB00230293874B01930C230093BD
:101C30001423C8222421002004F01CFB4120FFF7BC
:101C400045FA0346002B16D100BF4120FFF73EFAAC
:101C50000346002BF9D04FF6FF73009340F23F1379
:101C6000EF220021002004F063F9784B00221A6073
:101C7000724B02221A605320FFF728FA0346002B0A
:101C800016D100BF5320FFF721FA0346002BF9D0ED
:101C90004FF6FF73009340F23F13EF220021002024
:101CA00004F046F9694B01221A60644B02221A6063
:101CB0004420FFF70BFA0346002B13D100BF44204A
:101CC000FFF704FA0346002BF9D04FF6FF73009399
:101CD00040F23F13EF220021002004F029F9574B76
:101CE00001221A60554B1B68042B40F09480524B24
:101CF0001B68023B564A12681146184600F0ACFDBC
:101D00004FF478430293534B01930C230093142315
:101D1000C8220021002004F0ADFA07F57D63A3F688
:101D2000CC334D4A07CA03C31A80494B1B684B4A40
:101D300082FB03129210DB17D31A013307F204401F
:101D4000474A0A210CF0B2FE4FF47843029307F29F
:101D5000044301930C2300931423C8220C21002078
:101D600004F088FA4420FFF7B1F90346002B16D19E
:101D700000BF4420FFF7AAF90346002BF9D0344BEB
:101D800000221A604FF6FF73009340F23F13EF22D8
:101D90000021002004F0CCF8284B01221A605320C7
:101DA000FFF794F90346002B15D100BF5320FFF72E
:101DB0008DF90346002BF9D04FF6FF73009340F2E4
:101DC0003F13EF220021002004F0B2F8204B1B68E3
:101DD00018331F4A13605720FFF778F90346002B8A
:101DE00019D100BF5720FFF771F90346002BF9D036
:101DF0004FF6FF73009340F23F13EF2200210020C3
:101E000004F096F8124B1B68172B04DD104B1B686F
:101E1000183B0F4A1360134B1B78782B03D1124BDE
:101E2000C7F8C43F2BE00F4B1B78792B20D10F4B09
:101E3000C7F8C43F23E000BF08000020B002002024
:101E4000680F0108840F0108A40F0108A80E0020E4
:101E5000AC0E0020B00F0108F00F0108ABAAAA2AAF
:101E6000D40F010805000020D163000811640008A8
:101E7000A74B1B787A2B02D1A64BC7F8C43F00238F
:101E8000C7F8B03F4FF0000307F6AC7213604FF095
:101E90007E5307F6A87213600123C7F8A43FD0E170
:101EA0000023C7F8C03F0023C7F8BC3F0EE0D7F8B7
:101EB000C43F984703461A46D7F8C03F1344C7F8B3
:101EC000C03FD7F8BC3F0133C7F8BC3FD7F8BC3F91
:101ED000092BECDDD7F8C03F07EE903AB8EEE77A71
:101EE000F2EE046AC7EE267AFDEEE77A17EE903A34
:101EF0001BB21846FFF7E0FA07F57A6383ED000A94
:101F0000854B1B8801339AB2834B1A80824B1A8807
:101F1000824B1B789BB29A42C0F054817E4B0022C8
:101F20001A807F4B1B685A1C7E4B83FB02131344A1
:101F3000D911D317C91A0B461B015B1A1B01D11A01
:101F4000774B1960764B1B68774A9B00134407F563
:101F50007A6212681A60754B1B680133734A13600A
:101F60006B4B1B781C4607F57A631868FEF7ECFA92
:101F700002460B46381DCDE9002323466C4A20213A
:101F80000CF094FD6B4B1B685B016B4A1344391DCD
:101F9000202218460CF0BEFE664B1B680133654AD2
:101FA0001360644B1B683F2B09DD07F582634022F9
:101FB0006149184600F026FD5E4B00221A605F4B17
:101FC0001B68002B74D0594B1B68012B70D95C4BDC
:101FD000D3ED007AB2EE047A67EE877A07F69C7347
:101FE000C3ED007A4E4B1B68002B06D04C4B1B6890
:101FF0009BB2013B9BB21BB200E0EF23A7F89A3FD4
:10200000B7F99A3F484A9B00134493ED007A07F6CC
:102010009C73D3ED007A67EE277A9FED4A7A77EECC
:10202000677AFDEEE77A17EE903AA7F8983F07F542
:102030007A6393ED007A07F69C73D3ED007A67EE2E
:10204000277A9FED407A77EE677AFDEEE77A17EE12
:10205000903AA7F8963FB7F9983F002B08DBB7F9FD
:10206000983F40F23F129342A8BF13461BB200E0D4
:102070000023A7F8983FB7F9963F002B08DBB7F984
:10208000963F40F23F129342A8BF13461BB200E0B6
:102090000023A7F8963FB7F89A0FB7F8981F204B80
:1020A0001B689AB2B7F8963F1F24009403F07EFF96
:1020B0001B4B1B68EB2B40F085804FF6FF730093A2
:1020C00040F23F13EF220021002003F031FF1B4BB1
:1020D0001B68002B18D01F23029307F5826301931E
:1020E000102300931023F0220021002004F0C2F8F6
:1020F0001F2302933B1D0193102300931023F02212
:102100001421002004F0B6F80023C7F8B83F43E0DC
:102110000500002051640008980E002004000020F3
:10212000900E002089888888CC020020940E002020
:10213000DC0F01088C0E00208C060020A80E002069
:10214000000000200000484300002F43D7F8B82FBC
:1021500013469B0013445B0007EE903AF8EEE77AD3
:102160001FED077A77EE877AFDEEE77A17EE903A61
:10217000C7F8903FD7F8903F99B2D7F8903F9BB2FD
:1021800040F2FF720092EA22052003F00FFFD7F819
:10219000B83F0133C7F8B83FD7F8B83F052BD5DDB6
:1021A00040F2FF730093E1230522AF21052003F0E5
:1021B000FDFE40F2FF730093E123EA22AF21EA2003
:1021C00003F0F4FE224B1B68002B35D0214B1B681B
:1021D0000133204A13601F4B19681F4BA3FB0123D7
:1021E0001A0913469B0013449B00CA1A002A23D1E4
:1021F0001F23029307F5826301931023009310239A
:10220000F0220021002004F035F8144B1B68002B4D
:1022100003D0124B1B68013B00E03F235B01104AD7
:1022200013441F2202920193102300931023F022E3
:102230001421002004F01EF80A4B1B680133094AE0
:102240001360094B1B68022B3FF42AAEFFF7BFB99E
:10225000A80E0020B00E0020CDCCCCCC8C0E0020DF
:102260008C060020A8020020B002002080B594B0A7
:1022700000AF07F120033022002118460CF042FD88
:1022800007F10C0300221A605A609A60DA601A6142
:102290000023BB60284B1B6C274A43F08053136418
:1022A000254B1B6C03F08053BB60BB6800237B6035
:1022B000224B1B68214A43F4804313601F4B1B6869
:1022C00003F480437B607B6801233B624FF48033DF
:1022D0007B620223BB634FF48003FB6304233B64F4
:1022E000A8237B640223BB640723FB6407F120035C
:1022F000184605F003FC0346002B01D000F020F83F
:102300000F23FB6002233B6100237B614FF4A0534A
:10231000BB614FF48053FB6107F10C0305211846A4
:1023200005F064FE0346002B01D000F009F800BF61
:102330005037BD4680BD00BF0038024000700040ED
:1023400080B400AF72B600BFFEE70000B0B5ADF5D7
:102350009B6D04AF07F59963A3F59163694A1C4629
:1023600015460FCD0FC495E8070003C42280023440
:10237000130C237007F524730122634918460AF0F1
:1023800053FF034687F8C33497F8C334002B5ED05D
:1023900097F8C334013B0D2B3ED801A252F823F02D
:1023A000D9230008E1230008E923000819240008C4
:1023B0000924000819240008192400081924000819
:1023C0001924000819240008F92300080124000832
:1023D000F1230008112400084C4BC7F8C4341FE057
:1023E0004B4BC7F8C4341BE04A4BC7F8C43417E062
:1023F000494BC7F8C43413E0484BC7F8C4340FE066
:10240000474BC7F8C4340BE0464BC7F8C43407E069
:10241000454BC7F8C43403E0444BC7F8C43400BF8D
:102420003846D7F8C434424A40210CF03FFB4FF401
:10243000784302933B460193102300931023C82254
:102440000021002003F016FF4FF0FF3354E007F1A6
:1024500060030A22374918460AF02CFF034687F822
:10246000C33497F8C334002B0FD04FF47843029352
:10247000314B0193102300931023C8220021002028
:1024800003F0F8FE6FF0010336E007F15C0307F19B
:10249000400107F160001A220BF009FA034687F8A1
:1024A000C33497F8C334002B06D107F59963A3F220
:1024B0006C431B68002B14D14FF4784302931F4BDD
:1024C0000193102300931023C8220021002003F061
:1024D000D1FE07F1600318460BF0DCFB6FF002033E
:1024E0000AE007F1600318460BF0D4FB012206490D
:1024F00000200AF099FE0023184607F59967BD46AB
:10250000B0BD00BFBC10010830100020FC0F010856
:1025100008100108181001082410010834100108DF
:1025200044100108501001085810010868100108F3
:10253000741001088810010894100108A8100108FF
:1025400080B5ADF5267D04AF1823C7F8843200238B
:10255000C7F8803207F14C0301223F4918460AF0C0
:1025600063FE034687F87F3297F87F32002B0FD047
:10257000D7F8843299B200230293384B01930C238D
:1025800000931423C822002003F074FE00235EE0B1
:102590003B1D334918460BF0A7FB034687F87F32F3
:1025A00097F87F32002B3DD107F134023B1D1146D5
:1025B00018460BF032FC034687F87F3297F87F32DB
:1025C000002B2AD107F52273A3F515735B7A002B34
:1025D00023D007F52273A3F515731B7A03F01003BC
:1025E000002BE1D1D7F8843299B20023029307F18E
:1025F0003403093301930C2300931423C8220020D1
:1026000003F038FED7F884320C33C7F88432D7F899
:1026100080320133C7F88032C6E73B1D18460BF005
:10262000D6FB0DE0D7F8843299B2002302930D4B0C
:1026300001930C2300931423C822002003F01AFEF8
:102640000122054900200AF0EFFDD7F88032184634
:1026500007F52277BD4680BD301000200411010827
:10266000141101081811010880B5ADF5906D00AF87
:1026700007F59063A3F27C43186007F59063A3F21B
:102680007C4307F108001B681D4A14210CF00EFA68
:1026900007F5137301221B4918460AF0C5FD0346CE
:1026A00087F87F3497F87F34002B02D04FF0FF3348
:1026B00021E007F1080107F11C030A2218460AF07D
:1026C000F9FD034687F87F3497F87F34002B07D055
:1026D00001220C4900200AF0A7FD4FF0FF330AE069
:1026E00007F11C0318460BF0D5FA0122054900201A
:1026F0000AF09AFD0023184607F59067BD4680BD95
:10270000281101083010002080B5ADF5227D00AF02
:1027100007F52273A3F52173186007F52273A3F55B
:1027200022731960474B1B68DA68464B1B6822F01E
:102730000102DA600023C7F8843207F15003012256
:10274000414918460AF070FD034687F8833297F82E
:102750008332002B05D03D480CF0A0F94FF0FF3339
:102760006BE007F108033A4918460BF0BDFA03463F
:1027700087F8833297F88332002B4CD107F1380267
:1027800007F10803114618460BF047FB034687F88C
:10279000833297F88332002B37D107F52273A3F5E4
:1027A00014735B7A002B30D007F52273A3F51473F2
:1027B0001B7A03F01003002BE0D107F52273A3F579
:1027C0002173D7F884221B689A4218D107F1380385
:1027D00003F1090107F52273A3F522734FF4807208
:1027E00018680CF097FA07F1080318460BF0EFFA97
:1027F0000122154900200AF017FD00231DE0D7F83B
:1028000084320133C7F88432B8E707F10803184669
:102810000BF0DDFA02E00F480CF040F901220A4902
:1028200000200AF001FD074B1B68DA68054B1B68A6
:1028300042F00102DA604FF0FF33184607F52277C5
:10284000BD4680BD3C0F002030100020041101085F
:10285000141101081811010880B5ADF5C16D04AF60
:1028600007F5BF63A3F2F453186007F5BF63A3F540
:10287000BF6319601823C7F8F4350023C7F8F03593
:1028800007F1880207F5BF63A3F2F45311461868F5
:10289000FFF73AFF0346002B11D0D7F8F43599B271
:1028A0004FF478430293534B01930C23009314236A
:1028B000C822002003F0DEFC4FF0FF3395E007F55F
:1028C0006E7301224C4918460AF0AEFC034687F8A5
:1028D000EB3597F8EB35002B11D0D7F8F43599B2DA
:1028E0004FF478430293454B01930C230093142338
:1028F000C822002003F0BEFC4FF0FF3375E007F163
:10290000880107F5C473012218460AF0D3FC034678
:1029100087F8EB3597F8EB35002B1BD0D7F8F4355B
:1029200099B24FF478430293354B01930C230093F3
:102930001423C822002003F09DFC01222E49002010
:102940000AF072FC4FF0FF334FE0D7F8F035013357
:10295000C7F8F03507F5BF63A3F5BF63D7F8F025D7
:102960001B689A420ADA07F5C47207F1080380214E
:1029700018460BF08FFA0346002BE6D10023C7F868
:10298000EC3518E0D7F8F43599B20023029307F13B
:10299000080301930C2300931423C822002003F0A2
:1029A00069FCD7F8F4350C33C7F8F435D7F8EC35B3
:1029B0000133C7F8EC35D7F8EC35172B0ADC07F5EF
:1029C000C47207F10803802118460BF063FA03462E
:1029D000002BD7D107F5C47318460BF05BF9012221
:1029E000054900200AF020FC0023184607F5BF67C0
:1029F000BD4680BD341101083010002004110108CB
:102A00004C11010890B5ADF2944D04AF07F59063F9
:102A1000A3F27443186007F59063A3F58F63196000
:102A200007F59063A3F27C431A60544B1B68DA6885
:102A3000524B1B6822F00102DA6007F51273012283
:102A40004F4918460AF0F0FB034687F87B3497F8A5
:102A50007B34002B0DD04FF478430293494B019304
:102A6000102300931023C8220021002003F002FC51
:102A700080E007F59063A3F2744307F11800322257
:102A800019680AF017FC034687F87B3497F87B3403
:102A9000002B0DD04FF4784302933B4B019310234E
:102AA00000931023C8220021002003F0E3FB61E023
:102AB0000023C7F87C3442E0D7F87C341B0107F5CB
:102AC0009062A2F58F621268D418D7F87C341B018B
:102AD00007F59062A2F58F62126813441846FDF75D
:102AE000C7FB024607F1140307F1180021460AF05C
:102AF000DEFE034687F87B3497F87B34002B06D143
:102B000007F59063A3F26C431B68002B12D14FF4BE
:102B1000784302931D4B0193102300931023C82286
:102B20000021002003F0A6FB07F1180318460BF064
:102B3000B1F81FE0D7F87C340133C7F87C3407F5CF
:102B40009063A3F27C43D7F87C241B689A42B3DBE2
:102B500007F1180318460BF09DF8012208490020E0
:102B60000AF062FB054B1B68DA68044B1B6842F0F5
:102B70000102DA6007F28447BD4690BD3C0F002099
:102B800030100020D810010894100108A810010886
:102B900080B400AF0C4B0D4A1A600B4B00225A60F8
:102BA000094B00229A60084B0022DA60064B002293
:102BB0001A61054B00225A61034B06229A6100BF3D
:102BC000BD465DF8047B7047B40E0020002C014028
:102BD00080B58AB000AF786007F1140300221A6054
:102BE0005A609A60DA601A617B681B68284A9342CF
:102BF0004AD100233B61274B5B6C264A43F40063B8
:102C00005364244B5B6C03F400633B613B6900231A
:102C1000FB60204B1B6B1F4A43F0040313631D4BE7
:102C20001B6B03F00403FB60FB680023BB60194BC4
:102C30001B6B184A43F008031363164B1B6B03F01E
:102C40000803BB60BB684FF4F8537B610223BB6190
:102C50000023FB6103233B620C237B6207F1140317
:102C600019460D4803F0BCFD04237B610223BB61C0
:102C70000023FB6103233B620C237B6207F11403F7
:102C80001946064803F0ACFD00BF2837BD4680BD9D
:102C9000002C01400038024000080240000C0240B5
:102CA00080B483B000AF00237B60104B5B6C0F4A95
:102CB00043F4804353640D4B5B6C03F480437B60AF
:102CC0007B6800233B60094B1B6C084A43F0805330
:102CD0001364064B1B6C03F080533B603B6800BFE2
:102CE0000C37BD465DF8047B704700BF00380240DA
:102CF00080B400AFFEE780B400AFFEE780B400AF61
:102D0000FEE780B400AFFEE780B400AFFEE780B41A
:102D100000AF00BFBD465DF8047B704780B400AFD4
:102D200000BFBD465DF8047B704780B400AF00BFB4
:102D3000BD465DF8047B704780B500AF03F0FAFB39
:102D400000BF80BD80B500AF024806F001FE00BFA5
:102D500080BD00BF3C0F002080B400AF01231846A7
:102D6000BD465DF8047B704780B582B000AF7860E7
:102D700039600CF02DF8034616221A604FF0FF332D
:102D800018460837BD4680BD80B582B000AF786078
:102D90004FF0FF317868FFF7E7FFFEE780B586B0B8
:102DA00000AFF860B9607A6000237B610AE0AFF39E
:102DB00000800146BB685A1CBA60CAB21A707B69AF
:102DC00001337B617A697B689A42F0DB7B68184645
:102DD0001837BD4680BD80B586B000AFF860B960D9
:102DE0007A6000237B6109E0BB685A1CBA601B78DB
:102DF0001846AFF300807B6901337B617A697B6899
:102E00009A42F1DB7B6818461837BD4680BD80B416
:102E100083B000AF78604FF0FF3318460C37BD46E3
:102E20005DF8047B704780B483B000AF7860396090
:102E30003B684FF400525A60002318460C37BD46D9
:102E40005DF8047B704780B483B000AF78600123E5
:102E500018460C37BD465DF8047B704780B485B0DA
:102E600000AFF860B9607A60002318461437BD4699
:102E70005DF8047B7047000080B586B000AF7860D5
:102E8000144A154BD31A7B617B693B61134B1B685A
:102E9000002B02D1114B124A1A60104B1A687B6842
:102EA00013443A699A4207D20BF092FF03460C2270
:102EB0001A604FF0FF3309E0084B1B68FB60074BBB
:102EC0001A687B681344054A1360FB681846183774
:102ED000BD4680BD0000022000040000380F002025
:102EE000B811002080B400AF064BD3F88830054AF3
:102EF00043F47003C2F8883000BFBD465DF8047B20
:102F0000704700BF00ED00E080B586B000AF07F16C
:102F1000080300221A605A609A60DA603B46002279
:102F20001A605A601E4B4FF080421A601C4B42F2EE
:102F3000CF025A601A4B00229A60194B42F20F726C
:102F4000DA60174B00221A61154B80229A611448EF
:102F500006F03FFC0346002B01D0FFF7F1F94FF4D8
:102F60008053BB6007F1080319460D4806F0F8FDD1
:102F70000346002B01D0FFF7E3F900233B60002359
:102F80007B603B461946064807F014F80346002BC1
:102F900001D0FFF7D5F900BF1837BD4680BD00BF8F
:102FA0003C0F002080B584B000AF78607B681B6860
:102FB000B3F1804F15D10023FB600C4B1B6C0B4A07
:102FC00043F001031364094B1B6C03F00103FB6026
:102FD000FB68002200211C2003F0CBFB1C2003F027
:102FE000E4FB00BF1037BD4680BD00BF0038024083
:102FF00080B500AF124B134A1A60114B4FF4E13207
:103000005A600F4B00229A600D4B0022DA600C4B85
:1030100000221A610A4B0C225A61094B00229A6164
:10302000074B0022DA61064B00221A62044807F0BF
:1030300051F80346002B01D0FFF782F900BF80BD95
:10304000840F00200010014080B58AB000AF786086
:1030500007F1140300221A605A609A60DA601A615C
:103060007B681B68194A93422CD100233B61184BA3
:103070005B6C174A43F010035364154B5B6C03F011
:1030800010033B613B690023FB60114B1B6B104A33
:1030900043F0010313630E4B1B6B03F00103FB6052
:1030A000FB684FF4E0637B610223BB610023FB619B
:1030B00003233B6207237B6207F11403194605488B
:1030C00003F08EFB00BF2837BD4680BD00100140D5
:1030D0000038024000000240DFF834D00D480E49AD
:1030E0000E4A002302E0D458C4500433C4188C4262
:1030F000F9D30B4A0B4C002301E013600432A242C7
:10310000FBD3FFF7EFFE0BF069FEFEF7F3F9704714
:103110000000022000000020E401002054450108C6
:10312000E4010020B4110020FEE780B500AF1120BB
:1031300002F0B2F9782003F01DFA362002F0ACF963
:10314000002002F095F93A2002F0A6F9052002F0DD
:103150008FF9B22002F0A0F90C2002F089F90C20BE
:1031600002F086F9002002F083F9332002F080F9A2
:10317000332002F07DF9B72002F08EF9352002F0FD
:1031800077F9BB2002F088F9322002F071F9C020F3
:1031900002F082F90C2002F06BF9C22002F07CF9F7
:1031A000012002F065F9C32002F076F9102002F048
:1031B0005FF9C42002F070F9202002F059F9C6200E
:1031C00002F06AF90F2002F053F9D02002F064F9FE
:1031D000A42002F04DF9A12002F04AF9E02002F00B
:1031E0005BF9D02002F044F9002002F041F90220FE
:1031F00002F03EF9072002F03BF90A2002F038F90C
:10320000282002F035F9322002F032F9442002F091
:103210002FF9422002F02CF9062002F029F90E20A5
:1032200002F026F9122002F023F9142002F020F90E
:10323000172002F01DF9E12002F02EF9D02002F053
:1032400017F9002002F014F9022002F011F907200A
:1032500002F00EF90A2002F00BF9282002F008F91A
:10326000312002F005F9542002F002F9472002F063
:10327000FFF80E2002F0FCF81C2002F0F9F81720ED
:1032800002F0F6F81B2002F0F3F81E2002F0F0F82E
:103290002A2002F001F9002002F0EAF8002002F0F2
:1032A000E7F8002002F0E4F8EF2002F0E1F82B202C
:1032B00002F0F2F8002002F0DBF8002002F0D8F86B
:1032C000012002F0D5F83F2002F0D2F8292002F0C8
:1032D000E3F800BF80BD80B500AFCF2002F0DCF87E
:1032E000002002F0C5F8C12002F0C2F8302002F040
:1032F000BFF8ED2002F0D0F8642002F0B9F8032006
:1033000002F0B6F8122002F0B3F8812002F0B0F813
:10331000E82002F0C1F8852002F0AAF8102002F09F
:10332000A7F87A2002F0A4F8CB2002F0B5F83920F3
:1033300002F09EF82C2002F09BF8002002F098F892
:10334000342002F095F8022002F092F8F72002F003
:10335000A3F8202002F08CF8EA2002F09DF800206B
:1033600002F086F8002002F083F8C02002F094F802
:103370001B2002F07DF8C12002F08EF8012002F03F
:1033800077F8C52002F088F8302002F071F830207C
:1033900002F06EF8C72002F07FF8B72002F068F85C
:1033A000362002F079F8482002F062F83A2002F064
:1033B00073F8552002F05CF8B12002F06DF800209F
:1033C00002F056F81A2002F053F8B62002F064F822
:1033D0000A2002F04DF8A22002F04AF8F22002F092
:1033E0005BF8002002F044F8262002F055F8012096
:1033F00002F03EF8E02002F04FF80F2002F038F81B
:103400002A2002F035F8282002F032F8082002F0D5
:103410002FF80E2002F02CF8082002F029F8542092
:1034200002F026F8A92002F023F8432002F020F849
:103430000A2002F01DF80F2002F01AF8002002F016
:1034400017F8002002F014F8002002F011F8002014
:1034500002F00EF8E12002F01FF8002002F008F858
:10346000152002F005F8172002F002F8072001F0FD
:10347000FFFF112001F0FCFF062001F0F9FF2B20D7
:1034800001F0F6FF562001F0F3FF3C2001F0F0FFC1
:10349000052001F0EDFF102001F0EAFF0F2001F000
:1034A000E7FF3F2001F0E4FF3F2001F0E1FF0F20A4
:1034B00001F0DEFF2B2001F0EFFF002001F0D8FF2C
:1034C000002001F0D5FF012001F0D2FF3F2001F0E4
:1034D000CFFF2A2001F0E0FF002001F0C9FF00200B
:1034E00001F0C6FF002001F0C3FFEF2001F0C0FF94
:1034F000112001F0D1FF782003F03CF8292001F0E1
:10350000CBFF00BF80BD80B500AFED2001F0C4FF50
:10351000012001F0ADFFFE2001F0AAFFEE2001F036
:10352000BBFFDE2001F0A4FF212001F0A1FFF1206C
:1035300001F0B2FF012001F09BFFDF2001F0ACFFA2
:10354000102001F095FFC42001F0A6FF8F2001F0AC
:103550008FFFC62001F0A0FF002001F089FFE220CC
:1035600001F086FFE22001F083FFE22001F080FFFE
:10357000BF2001F091FFAA2001F07AFFB02001F0F6
:103580008BFF0D2001F074FF002001F071FF0D2072
:1035900001F06EFF002001F06BFF112001F068FFC9
:1035A000002001F065FF192001F062FF002001F00A
:1035B0005FFF212001F05CFF002001F059FF2D206A
:1035C00001F056FF002001F053FF3D2001F050FFB5
:1035D000002001F04DFF5D2001F04AFF002001F0C6
:1035E00047FF5D2001F044FF002001F041FFB120C2
:1035F00001F052FF802001F03BFF002001F038FF76
:103600008B2001F035FF002001F032FF962001F001
:103610002FFF002001F02CFFB22001F03DFF002021
:1036200001F026FF002001F023FF022001F020FF1F
:10363000002001F01DFF032001F01AFF002001F01F
:1036400017FFB32001F028FF002001F011FF002038
:1036500001F00EFF002001F00BFF002001F008FF39
:10366000002001F005FF002001F002FF002001F022
:10367000FFFE002001F0FCFE002001F0F9FE00201A
:1036800001F0F6FE002001F0F3FE002001F0F0FE54
:10369000002001F0EDFE002001F0EAFE002001F024
:1036A000E7FE002001F0E4FE002001F0E1FE002032
:1036B00001F0DEFE002001F0DBFE002001F0D8FE6C
:1036C000002001F0D5FE002001F0D2FE002001F024
:1036D000CFFE002001F0CCFEB42001F0DDFE8B20F7
:1036E00001F0C6FE002001F0C3FE962001F0C0FEEE
:1036F000002001F0BDFEA12001F0BAFE002001F083
:10370000B7FEB52001F0C8FE022001F0B1FE002096
:1037100001F0AEFE032001F0ABFE002001F0A8FE98
:10372000042001F0A5FE002001F0A2FEB62001F069
:10373000B3FE002001F09CFE002001F099FEB720AE
:1037400001F0AAFE002001F093FE002001F090FE9F
:103750003F2001F08DFE002001F08AFE5E2001F086
:1037600087FE002001F084FE642001F081FE00202D
:1037700001F07EFE8C2001F07BFE002001F078FE3F
:10378000AC2001F075FE002001F072FEDC2001F09B
:103790006FFE002001F06CFE702001F069FE002039
:1037A00001F066FE902001F063FE002001F060FE53
:1037B000EB2001F05DFE002001F05AFEDC2001F05C
:1037C00057FE002001F054FEB82001F065FE0020F5
:1037D00001F04EFE002001F04BFE002001F048FEFB
:1037E000002001F045FE002001F042FE002001F023
:1037F0003FFE002001F03CFE002001F039FEBA201F
:1038000001F04AFE242001F033FE002001F030FEDA
:10381000002001F02DFE002001F02AFEC12001F061
:103820003BFE202001F024FE002001F021FE542068
:1038300001F01EFE002001F01BFEFF2001F018FE2B
:10384000002001F015FEC22001F026FE0A2001F042
:103850000FFE002001F00CFE042001F009FE002004
:1038600001F006FEC32001F017FE3C2001F000FE2F
:10387000002001F0FDFD3A2001F0FAFD002001F0EA
:10388000F7FD392001F0F4FD002001F0F1FD3720B3
:1038900001F0EEFD002001F0EBFD3C2001F0E8FD21
:1038A000002001F0E5FD362001F0E2FD002001F0EE
:1038B000DFFD322001F0DCFD002001F0D9FD2F20DA
:1038C00001F0D6FD002001F0D3FD2C2001F0D0FD49
:1038D000002001F0CDFD292001F0CAFD002001F0FB
:1038E000C7FD262001F0C4FD002001F0C1FD242009
:1038F00001F0BEFD002001F0BBFD242001F0B8FD69
:10390000002001F0B5FD232001F0B2FD002001F000
:10391000AFFD3C2001F0ACFD002001F0A9FD3620F8
:1039200001F0A6FD002001F0A3FD322001F0A0FD72
:10393000002001F09DFD2F2001F09AFD002001F0F4
:1039400097FD2C2001F094FD002001F091FD29202D
:1039500001F08EFD002001F08BFD262001F088FD96
:10396000002001F085FD242001F082FD002001F0FF
:103970007FFD242001F07CFD002001F079FD232053
:1039800001F076FD002001F073FDC42001F084FDFC
:10399000622001F06DFD002001F06AFD052001F0BC
:1039A00067FD002001F064FD842001F061FD00202E
:1039B00001F05EFDF02001F05BFD002001F058FDFC
:1039C000182001F055FD002001F052FDA42001F067
:1039D0004FFD002001F04CFD182001F049FD0020B2
:1039E00001F046FD502001F043FD002001F040FDB4
:1039F0000C2001F03DFD002001F03AFD172001F000
:103A000037FD002001F034FD952001F031FD00204C
:103A100001F02EFDF32001F02BFD002001F028FD28
:103A2000E62001F025FD002001F022FDC52001F077
:103A300033FD322001F01CFD002001F019FD44206F
:103A400001F016FD002001F013FD652001F010FDCE
:103A5000002001F00DFD762001F00AFD002001F0AC
:103A600007FD882001F004FD002001F001FDC620C3
:103A700001F012FD202001F0FBFC002001F0F8FC19
:103A8000172001F0F5FC002001F0F2FC012001F00C
:103A9000EFFC002001F0ECFCC72001F0FDFC002051
:103AA00001F0E6FC002001F0E3FC002001F0E0FC66
:103AB000002001F0DDFCC82001F0EEFC002001F048
:103AC000D7FC002001F0D4FC002001F0D1FC002044
:103AD00001F0CEFCC92001F0DFFC002001F0C8FCA1
:103AE000002001F0C5FC002001F0C2FC002001F024
:103AF000BFFC002001F0BCFC002001F0B9FC00205C
:103B000001F0B6FC002001F0B3FC002001F0B0FC95
:103B1000002001F0ADFC002001F0AAFC002001F023
:103B2000A7FC002001F0A4FC002001F0A1FC002073
:103B300001F09EFC002001F09BFCE02001F0ACFCB9
:103B4000162001F095FC002001F092FC1C2001F0F1
:103B50008FFC002001F08CFC212001F089FC00206A
:103B600001F086FC362001F083FC002001F080FC8F
:103B7000462001F07DFC002001F07AFC522001F08B
:103B800077FC002001F074FC642001F071FC00203F
:103B900001F06EFC7A2001F06BFC002001F068FC63
:103BA0008B2001F065FC002001F062FC992001F0FF
:103BB0005FFC002001F05CFCA82001F059FC002013
:103BC00001F056FCB92001F053FC002001F050FC3C
:103BD000C42001F04DFC002001F04AFCCA2001F095
:103BE00047FC002001F044FCD22001F041FC002001
:103BF00001F03EFCD92001F03BFC002001F038FC34
:103C0000E02001F035FC002001F032FCF32001F04F
:103C10002FFC002001F02CFCE12001F03DFC1620DF
:103C200001F026FC002001F023FC1C2001F020FC08
:103C3000002001F01DFC222001F01AFC002001F000
:103C400017FC362001F014FC002001F011FC452087
:103C500001F00EFC002001F00BFC522001F008FCEA
:103C6000002001F005FC642001F002FC002001F0BE
:103C7000FFFB7A2001F0FCFB002001F0F9FB8B2018
:103C800001F0F6FB002001F0F3FB992001F0F0FBBE
:103C9000002001F0EDFBA82001F0EAFB002001F07C
:103CA000E7FBB92001F0E4FB002001F0E1FBC420B8
:103CB00001F0DEFB002001F0DBFBCA2001F0D8FBA5
:103CC000002001F0D5FBD22001F0D2FB002001F052
:103CD000CFFBD82001F0CCFB002001F0C9FBE02095
:103CE00001F0C6FB002001F0C3FBF32001F0C0FB94
:103CF000002001F0BDFBE22001F0CEFB052001F029
:103D0000B7FB002001F0B4FB0B2001F0B1FB002059
:103D100001F0AEFB1B2001F0ABFB002001F0A8FB83
:103D2000342001F0A5FB002001F0A2FB442001F0AB
:103D30009FFB002001F09CFB4F2001F099FB00202D
:103D400001F096FB612001F093FB002001F090FB55
:103D5000792001F08DFB002001F08AFB882001F022
:103D600087FB002001F084FB972001F081FB0020FD
:103D700001F07EFBA62001F07BFB002001F078FB28
:103D8000B72001F075FB002001F072FBC22001F0AA
:103D90006FFB002001F06CFBC72001F069FB0020E5
:103DA00001F066FBD12001F063FB002001F060FB15
:103DB000D62001F05DFB002001F05AFBDD2001F070
:103DC00057FB002001F054FBF32001F051FB0020D1
:103DD00001F04EFBE32001F05FFB052001F048FB02
:103DE000002001F045FB0A2001F042FB002001F019
:103DF0003FFB1C2001F03CFB002001F039FB33208D
:103E000001F036FB002001F033FB442001F030FBD1
:103E1000002001F02DFB502001F02AFB002001F0D2
:103E200027FB622001F024FB002001F021FB782019
:103E300001F01EFB002001F01BFB882001F018FBA5
:103E4000002001F015FB972001F012FB002001F08B
:103E50000FFBA62001F00CFB002001F009FBB720AE
:103E600001F006FB002001F003FBC22001F000FB83
:103E7000002001F0FDFAC72001F0FAFA002001F05D
:103E8000F7FAD12001F0F4FA002001F0F1FAD52080
:103E900001F0EEFA002001F0EBFADD2001F0E8FA83
:103EA000002001F0E5FAF32001F0E2FA002001F031
:103EB000DFFAE42001F0F0FA012001F0D9FA002045
:103EC00001F0D6FA012001F0D3FA002001F0D0FA77
:103ED000022001F0CDFA002001F0CAFA2A2001F0F8
:103EE000C7FA002001F0C4FA3C2001F0C1FA00201A
:103EF00001F0BEFA4B2001F0BBFA002001F0B8FA45
:103F00005D2001F0B5FA002001F0B2FA742001F052
:103F1000AFFA002001F0ACFA842001F0A9FA0020E9
:103F200001F0A6FA932001F0A3FA002001F0A0FA14
:103F3000A22001F09DFA002001F09AFAB32001F0CE
:103F400097FA002001F094FABE2001F091FA0020C7
:103F500001F08EFAC42001F08BFA002001F088FAFB
:103F6000CD2001F085FA002001F082FAD32001F083
:103F70007FFA002001F07CFADD2001F079FA0020C0
:103F800001F076FAF32001F073FA002001F070FAE4
:103F9000E52001F081FA002001F06AFA002001F02A
:103FA00067FA002001F064FA002001F061FA0220B3
:103FB00001F05EFA002001F05BFA292001F058FAC6
:103FC000002001F055FA3C2001F052FA002001F0E7
:103FD0004FFA4B2001F04CFA002001F049FA5D2025
:103FE00001F046FA002001F043FA742001F040FA93
:103FF000002001F03DFA842001F03AFA002001F09F
:1040000037FA932001F034FA002001F031FAA220AF
:1040100001F02EFA002001F02BFAB32001F028FA6B
:10402000002001F025FABE2001F022FA002001F064
:104030001FFAC42001F01CFA002001F019FACD206B
:1040400001F016FA002001F013FAD32001F010FA63
:10405000002001F00DFADC2001F00AFA002001F046
:1040600007FAF32001F004FA002001F001FAE6203B
:1040700001F012FA112001F0FBF9002001F0F8F92B
:10408000342001F0F5F9002001F0F2F9562001F09A
:10409000EFF9002001F0ECF9762001F0E9F90020B9
:1040A00001F0E6F9772001F0E3F9002001F0E0F9F2
:1040B000662001F0DDF9002001F0DAF9882001F036
:1040C000D7F9002001F0D4F9992001F0D1F90020AE
:1040D00001F0CEF9BB2001F0CBF9002001F0C8F9C6
:1040E000992001F0C5F9002001F0C2F9662001F025
:1040F000BFF9002001F0BCF9552001F0B9F900200A
:1041000001F0B6F9552001F0B3F9002001F0B0F943
:10411000452001F0ADF9002001F0AAF9432001F09B
:10412000A7F9002001F0A4F9442001F0A1F9002032
:1041300001F09EF9E72001F0AFF9322001F098F983
:10414000002001F095F9552001F092F9002001F0CE
:104150008FF9762001F08CF9002001F089F96620B2
:1041600001F086F9002001F083F9672001F080F961
:10417000002001F07DF9672001F07AF9002001F0BC
:1041800077F9872001F074F9002001F071F9992086
:1041900001F06EF9002001F06BF9BB2001F068F925
:1041A000002001F065F9992001F062F9002001F08A
:1041B0005FF9772001F05CF9002001F059F9442003
:1041C00001F056F9002001F053F9562001F050F9A2
:1041D000002001F04DF9232001F04AF9002001F000
:1041E00047F9332001F044F9002001F041F945205E
:1041F00001F03EF9002001F03BF9E82001F04CF914
:10420000002001F035F9002001F032F9992001F089
:104210002FF9002001F02CF9872001F029F9002066
:1042200001F026F9882001F023F9002001F020F99F
:10423000772001F01DF9002001F01AF9662001F045
:1042400017F9002001F014F9882001F011F900207D
:1042500001F00EF9AA2001F00BF9002001F008F995
:10426000BB2001F005F9002001F002F9992001F0CE
:10427000FFF8002001F0FCF8662001F0F9F80020BA
:1042800001F0F6F8552001F0F3F8002001F0F0F805
:10429000552001F0EDF8002001F0EAF8442001F08B
:1042A000E7F8002001F0E4F8442001F0E1F80020F4
:1042B00001F0DEF8552001F0DBF8002001F0D8F81D
:1042C000E92001F0E9F8AA2001F0D2F8002001F07D
:1042D000CFF8002001F0CCF8002001F0C9F8002050
:1042E00001F0DAF8AA2001F0C3F8CF2001F0D4F8E9
:1042F000002001F0BDF8002001F0BAF8002001F024
:10430000B7F8002001F0B4F8002001F0B1F8002067
:1043100001F0AEF8002001F0ABF8002001F0A8F8A1
:10432000002001F0A5F8002001F0A2F8002001F023
:104330009FF8002001F09CF8002001F099F800207F
:1043400001F096F8002001F093F8002001F090F8B9
:10435000002001F08DF8F02001F09EF8002001F01F
:1043600087F8502001F084F8002001F081F8002047
:1043700001F07EF8002001F07BF8F32001F08CF8CA
:10438000002001F075F8F92001F086F8062001F010
:104390006FF8102001F06CF8292001F069F8002076
:1043A00001F066F83A2001F077F8552001F060F846
:1043B000112001F071F8642002F0DCF8292001F0EE
:1043C0006BF8352001F068F8002001F051F8512019
:1043D00001F062F8FF2001F04BF8532001F05CF887
:1043E0002C2001F045F8552001F056F8822001F00C
:1043F0003FF82C2001F050F800BF80BD80B500AF21
:1044000055214FF4704001F05BF8AA214FF20100F2
:1044100001F056F852214FF2020001F051F8082144
:104420004FF2030001F04CF801214FF2040001F0BB
:1044300047F80D214FF4304001F042F80D214BF2C6
:10444000010001F03DF80D214BF2020001F038F8B7
:1044500034214FF4364001F033F834214BF201603F
:1044600001F02EF834214BF2026001F029F80D2101
:104470004FF4314001F024F80D214BF2011001F00E
:104480001FF80D214BF2021001F01AF834214FF4FD
:10449000374001F015F834214BF2017001F010F8AB
:1044A00034214BF2027001F00BF800214FF432403E
:1044B00001F006F800214BF2012001F001F8002183
:1044C0004BF2022000F0FCFF24214FF4384000F0B2
:1044D000F7FF24214BF6010000F0F2FF24214BF6F8
:1044E000020000F0EDFF01214FF43F4000F0E8FF33
:1044F0000F214FF4334000F0E3FF0F214BF2013066
:1045000000F0DEFF0F214BF2023000F0D9FF342122
:104510004FF4394000F0D4FF34214BF6011000F085
:10452000CFFF34214BF6021000F0CAFF08214FF4F0
:10453000354000F0C5FF08214BF2015000F0C0FFEC
:1045400008214BF2025000F0BBFF03214FF4424020
:1045500000F0B6FF24214FF43A4000F0B1FF2421CF
:104560004BF6012000F0ACFF24214BF6022000F0B6
:10457000A7FF00214FF43C4000F0A2FF78214BF64A
:10458000014000F09DFF00214BF6024000F098FF33
:1045900000214FF43D4000F093FF78214BF601508D
:1045A00000F08EFF00214BF6025000F089FF002141
:1045B0004FF43E4000F084FF64214BF6016000F0B0
:1045C0007FFF00214FF4514000F07AFF33214DF27C
:1045D000011000F075FF00214DF2021000F070FF95
:1045E00034214DF2031000F06BFF00214DF2041056
:1045F00000F066FF3A214DF2051000F061FF002146
:104600004DF2061000F05CFF4A214DF2071000F059
:1046100057FF00214DF2081000F052FF5C214DF2CF
:10462000091000F04DFF00214DF20A1000F048FF84
:1046300081214DF20B1000F043FF00214DF20C10D0
:1046400000F03EFFA6214DF20D1000F039FF0021D1
:104650004DF20E1000F034FFE5214DF20F1000F086
:104660002FFF01214DF2101000F02AFF13214DF20F
:10467000111000F025FF01214DF2121000F020FF73
:1046800054214DF2131000F01BFF01214DF21410C4
:1046900000F016FF82214DF2151000F011FF0121EC
:1046A0004DF2161000F00CFFCA214DF2171000F069
:1046B00007FF02214DF2181000F002FF00214DF219
:1046C000191000F0FDFE02214DF21A1000F0F8FE64
:1046D00001214DF21B1000F0F3FE02214DF21C10DF
:1046E00000F0EEFE34214DF21D1000F0E9FE022133
:1046F0004DF21E1000F0E4FE67214DF21F1000F095
:10470000DFFE02214DF2201000F0DAFE84214DF28E
:10471000211000F0D5FE02214DF2221000F0D0FE53
:10472000A4214DF2231000F0CBFE02214DF2241003
:1047300000F0C6FEB7214DF2251000F0C1FE0221A7
:104740004DF2261000F0BCFECF214DF2271000F0F4
:10475000B7FE02214DF2281000F0B2FEDE214DF22C
:10476000291000F0ADFE02214DF22A1000F0A8FE43
:10477000F2214DF22B1000F0A3FE02214DF22C107D
:1047800000F09EFEFE214DF22D1000F099FE032157
:104790004DF22E1000F094FE10214DF22F1000F07B
:1047A0008FFE03214DF2301000F08AFE33214DF2CE
:1047B000311000F085FE03214DF2321000F080FE32
:1047C0006D214DF2331000F07BFE00214FF452407A
:1047D00000F076FE33214DF2012000F071FE002141
:1047E0004DF2022000F06CFE34214DF2032000F067
:1047F00067FE00214DF2042000F062FE3A214DF2E6
:10480000052000F05DFE00214DF2062000F058FE6C
:104810004A214DF2072000F053FE00214DF20820FE
:1048200000F04EFE5C214DF2092000F049FE00210F
:104830004DF20A2000F044FE81214DF20B2000F0E1
:104840003FFE00214DF20C2000F03AFEA6214DF271
:104850000D2000F035FE00214DF20E2000F030FE5C
:10486000E5214DF20F2000F02BFE01214DF210202A
:1048700000F026FE13214DF2112000F021FE01214F
:104880004DF2122000F01CFE54214DF2132000F0D6
:1048900017FE01214DF2142000F012FE82214DF28C
:1048A000152000F00DFE01214DF2162000F008FE4B
:1048B000CA214DF2172000F003FE02214DF218200C
:1048C00000F0FEFD00214DF2192000F0F9FD02215B
:1048D0004DF21A2000F0F4FD01214DF21B2000F0F2
:1048E000EFFD02214DF21C2000F0EAFD34214DF2D3
:1048F0001D2000F0E5FD02214DF21E2000F0E0FD3C
:1049000067214DF21F2000F0DBFD02214DF2202037
:1049100000F0D6FD84214DF2212000F0D1FD0221CE
:104920004DF2222000F0CCFDA4214DF2232000F016
:10493000C7FD02214DF2242000F0C2FDB7214DF247
:10494000252000F0BDFD02214DF2262000F0B8FD2B
:10495000CF214DF2272000F0B3FD02214DF2282097
:1049600000F0AEFDDE214DF2292000F0A9FD02216C
:104970004DF22A2000F0A4FDF2214DF22B2000F090
:104980009FFD02214DF22C2000F09AFDFE214DF2F8
:104990002D2000F095FD03214DF22E2000F090FD1A
:1049A00010214DF22F2000F08BFD03214DF230201D
:1049B00000F086FD33214DF2312000F081FD03210E
:1049C0004DF2322000F07CFD6D214DF2332000F0DD
:1049D00077FD00214FF4534000F072FD33214DF27A
:1049E000013000F06DFD00214DF2023000F068FD55
:1049F00034214DF2033000F063FD00214DF204300C
:104A000000F05EFD3A214DF2053000F059FD002125
:104A10004DF2063000F054FD4A214DF2073000F00F
:104A20004FFD00214DF2083000F04AFD5C214DF2AF
:104A3000093000F045FD00214DF20A3000F040FD44
:104A400081214DF20B3000F03BFD00214DF20C3086
:104A500000F036FDA6214DF20D3000F031FD0021B1
:104A60004DF20E3000F02CFDE5214DF20F3000F03C
:104A700027FD01214DF2103000F022FD13214DF2EF
:104A8000113000F01DFD01214DF2123000F018FD33
:104A900054214DF2133000F013FD01214DF214307A
:104AA00000F00EFD82214DF2153000F009FD0121CC
:104AB0004DF2163000F004FDCA214DF2173000F01F
:104AC000FFFC02214DF2183000F0FAFC00214DF2FB
:104AD000193000F0F5FC02214DF21A3000F0F0FC24
:104AE00001214DF21B3000F0EBFC02214DF21C3095
:104AF00000F0E6FC34214DF21D3000F0E1FC022113
:104B00004DF21E3000F0DCFC67214DF21F3000F04A
:104B1000D7FC02214DF2203000F0D2FC84214DF26E
:104B2000213000F0CDFC02214DF2223000F0C8FC13
:104B3000A4214DF2233000F0C3FC02214DF22430B9
:104B400000F0BEFCB7214DF2253000F0B9FC022187
:104B50004DF2263000F0B4FCCF214DF2273000F0AA
:104B6000AFFC02214DF2283000F0AAFCDE214DF20C
:104B7000293000F0A5FC02214DF22A3000F0A0FC03
:104B8000F2214DF22B3000F09BFC02214DF22C3033
:104B900000F096FCFE214DF22D3000F091FC032137
:104BA0004DF22E3000F08CFC10214DF22F3000F031
:104BB00087FC03214DF2303000F082FC33214DF2AE
:104BC000313000F07DFC03214DF2323000F078FCF2
:104BD0006D214DF2333000F073FC00214FF454404E
:104BE00000F06EFC33214DF2014000F069FC002121
:104BF0004DF2024000F064FC34214DF2034000F01D
:104C00005FFC00214DF2044000F05AFC3A214DF2C5
:104C1000054000F055FC00214DF2064000F050FC2C
:104C20004A214DF2074000F04BFC00214DF20840B4
:104C300000F046FC5C214DF2094000F041FC0021EF
:104C40004DF20A4000F03CFC81214DF20B4000F097
:104C500037FC00214DF20C4000F032FCA6214DF251
:104C60000D4000F02DFC00214DF20E4000F028FC1C
:104C7000E5214DF20F4000F023FC01214DF21040E0
:104C800000F01EFC13214DF2114000F019FC01212F
:104C90004DF2124000F014FC54214DF2134000F08C
:104CA0000FFC01214DF2144000F00AFC82214DF26C
:104CB000154000F005FC01214DF2164000F000FC0B
:104CC000CA214DF2174000F0FBFB02214DF21840C3
:104CD00000F0F6FB00214DF2194000F0F1FB02213B
:104CE0004DF21A4000F0ECFB01214DF21B4000F0A8
:104CF000E7FB02214DF21C4000F0E2FB34214DF2B3
:104D00001D4000F0DDFB02214DF21E4000F0D8FBFB
:104D100067214DF21F4000F0D3FB02214DF22040ED
:104D200000F0CEFB84214DF2214000F0C9FB0221AE
:104D30004DF2224000F0C4FBA4214DF2234000F0CC
:104D4000BFFB02214DF2244000F0BAFBB7214DF227
:104D5000254000F0B5FB02214DF2264000F0B0FBEB
:104D6000CF214DF2274000F0ABFB02214DF228404D
:104D700000F0A6FBDE214DF2294000F0A1FB02214C
:104D80004DF22A4000F09CFBF2214DF22B4000F046
:104D900097FB02214DF22C4000F092FBFE214DF2D8
:104DA0002D4000F08DFB03214DF22E4000F088FBDA
:104DB00010214DF22F4000F083FB03214DF23040D3
:104DC00000F07EFB33214DF2314000F079FB0321EE
:104DD0004DF2324000F074FB6D214DF2334000F093
:104DE0006FFB00214FF4554000F06AFB33214DF278
:104DF000015000F065FB00214DF2025000F060FB15
:104E000034214DF2035000F05BFB00214DF20450C1
:104E100000F056FB3A214DF2055000F051FB002105
:104E20004DF2065000F04CFB4A214DF2075000F0C5
:104E300047FB00214DF2085000F042FB5C214DF28F
:104E4000095000F03DFB00214DF20A5000F038FB04
:104E500081214DF20B5000F033FB00214DF20C503C
:104E600000F02EFBA6214DF20D5000F029FB002191
:104E70004DF20E5000F024FBE5214DF20F5000F0F2
:104E80001FFB01214DF2105000F01AFB13214DF2CF
:104E9000115000F015FB01214DF2125000F010FBF3
:104EA00054214DF2135000F00BFB01214DF2145030
:104EB00000F006FB82214DF2155000F001FB0121AC
:104EC0004DF2165000F0FCFACA214DF2175000F0D6
:104ED000F7FA02214DF2185000F0F2FA00214DF2DB
:104EE000195000F0EDFA02214DF21A5000F0E8FAE4
:104EF00001214DF21B5000F0E3FA02214DF21C504B
:104F000000F0DEFA34214DF21D5000F0D9FA0221F2
:104F10004DF21E5000F0D4FA67214DF21F5000F000
:104F2000CFFA02214DF2205000F0CAFA84214DF24E
:104F3000215000F0C5FA02214DF2225000F0C0FAD3
:104F4000A4214DF2235000F0BBFA02214DF224506F
:104F500000F0B6FAB7214DF2255000F0B1FA022167
:104F60004DF2265000F0ACFACF214DF2275000F060
:104F7000A7FA02214DF2285000F0A2FADE214DF2EC
:104F8000295000F09DFA02214DF22A5000F098FAC3
:104F9000F2214DF22B5000F093FA02214DF22C50E9
:104FA00000F08EFAFE214DF22D5000F089FA032117
:104FB0004DF22E5000F084FA10214DF22F5000F0E7
:104FC0007FFA03214DF2305000F07AFA33214DF28E
:104FD000315000F075FA03214DF2325000F070FAB2
:104FE0006D214DF2335000F06BFA00214FF4564022
:104FF00000F066FA33214DF2016000F061FA002101
:105000004DF2026000F05CFA34214DF2036000F0D2
:1050100057FA00214DF2046000F052FA3A214DF2A5
:10502000056000F04DFA00214DF2066000F048FAEC
:105030004A214DF2076000F043FA00214DF208606A
:1050400000F03EFA5C214DF2096000F039FA0021CF
:105050004DF20A6000F034FA81214DF20B6000F04D
:105060002FFA00214DF20C6000F02AFAA6214DF231
:105070000D6000F025FA00214DF20E6000F020FADC
:10508000E5214DF20F6000F01BFA01214DF2106096
:1050900000F016FA13214DF2116000F011FA01210F
:1050A0004DF2126000F00CFA54214DF2136000F042
:1050B00007FA01214DF2146000F002FA82214DF24C
:1050C000156000F0FDF901214DF2166000F0F8F9CD
:1050D000CA214DF2176000F0F3F902214DF2186079
:1050E00000F0EEF900214DF2196000F0E9F902211B
:1050F0004DF21A6000F0E4F901214DF21B6000F05E
:10510000DFF902214DF21C6000F0DAF934214DF292
:105110001D6000F0D5F902214DF21E6000F0D0F9BB
:1051200067214DF21F6000F0CBF902214DF22060A3
:1051300000F0C6F984214DF2216000F0C1F902218E
:105140004DF2226000F0BCF9A4214DF2236000F082
:10515000B7F902214DF2246000F0B2F9B7214DF207
:10516000256000F0ADF902214DF2266000F0A8F9AB
:10517000CF214DF2276000F0A3F902214DF2286003
:1051800000F09EF9DE214DF2296000F099F902212C
:105190004DF22A6000F094F9F2214DF22B6000F0FC
:1051A0008FF902214DF22C6000F08AF9FE214DF2B8
:1051B0002D6000F085F903214DF22E6000F080F99A
:1051C00010214DF22F6000F07BF903214DF2306089
:1051D00000F076F933214DF2316000F071F90321CE
:1051E0004DF2326000F06CF96D214DF2336000F049
:1051F00067F955214FF4704000F062F9AA214FF28F
:10520000010000F05DF952214FF2020000F058F960
:1052100008214FF2030000F053F900214FF204007F
:1052200000F04EF9CC214FF4314000F049F9002153
:105230004BF2011000F044F905214FF4364000F024
:105240003FF970214FF4374000F03AF970214BF2EA
:10525000017000F035F901214FF4384000F030F9C9
:1052600003214BF6010000F02BF903214BF602005D
:1052700000F026F903214BF6030000F021F902218A
:105280004FF43C4000F01CF900214BF6014000F0C7
:1052900017F900214BF6024000F012F9D0214FF42B
:1052A000494000F00DF902214CF6011000F008F918
:1052B00050214CF6021000F003F950214CF6031077
:1052C00000F0FEF850214CF6041000F0F9F800212F
:1052D0004FF4545000F0F4F855214FF4685000F0AA
:1052E000EFF84FF4885000F0D7F8012001F042F9B0
:1052F0004FF4245000F0D0F800BF80BD80B500AF5F
:10530000E22000F0C9F81D2000F0B2F8022000F001
:10531000AFF8042000F0ACF8012001F02BF9E020F8
:1053200000F0BAF8012000F0A3F80A2001F022F9F9
:10533000E02000F0B1F8032000F09AF80C2001F012
:1053400019F9012000F0A8F80A2001F013F9E6206D
:1053500000F0A2F82F2000F08BF8FF2000F088F872
:10536000FF2000F085F8B02000F096F8202000F033
:105370007FF8002000F07CF8032000F079F840F27C
:105380001F3000F075F8012000F072F840F2DF10D5
:1053900000F06EF8002000F06BF8B42000F07CF80C
:1053A000042000F065F840F21F4000F061F8002092
:1053B00000F05EF82E2000F05BF8002000F058F8B6
:1053C000002000F055F8002000F052F8002000F016
:1053D0004FF8B62000F060F8022000F049F84FF4D2
:1053E000037000F045F8002000F042F8172000F0AC
:1053F0003FF8152000F03CF8002000F039F80020BC
:1054000000F036F8F02000F047F8032000F030F804
:10541000292000F041F8D02000F03EF8002000F0F4
:1054200027F8BE2000F038F8052000F021F8FE2013
:1054300000F01EF8012000F01BF8002000F018F822
:10544000002000F015F8002000F012F8B82000F05D
:1054500023F8032000F00CF8012000F009F8BA202E
:1054600000F01AF8012000F003F800BF80BD000032
:1054700080B483B000AF0346FB80FB889BB2FB8007
:10548000044BFA8892B25A8000BF0C37BD465DF8D3
:10549000047B70477E00006C80B483B000AF03468D
:1054A000FB80FB889BB2FB80044BFA8892B21A8087
:1054B00000BF0C37BD465DF8047B70477E00006C72
:1054C00080B483B000AF03460A46FB801346BB801E
:1054D000054AFB881380044ABB88538000BF0C3701
:1054E000BD465DF8047B70477E00006C80B483B0DD
:1054F00000AF064B5B889BB2FB80FB889BB21846D3
:105500000C37BD465DF8047B704700BF7E00006C21
:1055100080B400AF044B054A12891A8000BFBD4613
:105520005DF8047B704700BF7E00006C18100020FF
:1055300080B582B000AF03460A46FB801346BB80AD
:10554000654B9B8841F66312934267D1624B9B790E
:10555000002B1ED1604B1A88FB88D31A9BB2013BEB
:10556000FB805D4B5B891846FFF796FF0020FFF735
:105570007FFF0020FFF77CFFFB881B0A9BB21846C9
:10558000FFF776FFFB88DBB29BB21846FFF770FF90
:1055900021E0514B5B891846FFF77EFFFB881B0A11
:1055A0009BB21846FFF764FFFB88DBB29BB218463C
:1055B000FFF75EFF484B1B88013B1B129BB218464E
:1055C000FFF756FF444B1B88013B9BB2DBB29BB2FB
:1055D0001846FFF74DFF404B9B891846FFF75CFFCD
:1055E000BB881B0A9BB21846FFF742FFBB88DBB2A1
:1055F0009BB21846FFF73CFF374B5B88013B1B1201
:105600009BB21846FFF734FF334B5B88013B9BB2DC
:10561000DBB29BB21846FFF72BFF58E02E4B9B885E
:1056200045F21052934230D12B4B5B891846FFF75D
:1056300033FFFB881B0A9BB21846FFF719FF264B66
:105640005B8901339BB21846FFF726FFFB88DBB26C
:105650009BB21846FFF70CFF1F4B9B891846FFF7BC
:105660001BFFBB881B0A9BB21846FFF701FF1A4BB2
:105670009B8901339BB21846FFF70EFFBB88DBB254
:105680009BB21846FFF7F4FE21E0134B5B891846E6
:10569000FFF702FFFB881B0A9BB21846FFF7E8FEE4
:1056A000FB88DBB29BB21846FFF7E2FE0A4B9B89F0
:1056B0001846FFF7F1FEBB881B0A9BB21846FFF79E
:1056C000D7FEBB88DBB29BB21846FFF7D1FE00BF06
:1056D0000837BD4680BD00BF1810002080B584B0DB
:1056E00000AF0346FB710023FB810023BB81994B74
:1056F0009B79012B05D1974B9B8841F6631293420E
:1057000009D1944B9B79002B34D1924B9B8841F665
:10571000631293422ED1FB79072B2BD801A252F8AA
:1057200023F000BF455700084B57000851570008A9
:10573000575700085D57000863570008695700086D
:105740006F5700080623FB7114E00723FB7111E07B
:105750000423FB710EE00523FB710BE00123FB71B9
:1057600008E00023FB7105E00323FB7102E0022344
:10577000FB7100BFFB79072B35D801A252F823F04B
:10578000E7570008A1570008AB570008B5570008B5
:10579000BF570008C9570008D3570008DD57000855
:1057A000FB8943F08003FB811DE0FB8943F040034C
:1057B000FB8118E0FB8943F0C003FB8113E0FB8908
:1057C00043F02003FB810EE0FB8943F06003FB8183
:1057D00009E0FB8943F0A003FB8104E0FB8943F06F
:1057E000E003FB8100BF3623BB815A4B9B8845F207
:1057F0001052934202D14FF45853BB81554B9B88B2
:1058000049F24132934205D0524B9B8847F289724C
:10581000934203D1FB8943F00803FB81FA89BB89DA
:1058200011461846FFF74CFE4A4B9B8841F663121F
:10583000934225D0FB8903F02003002B10D0454B69
:105840001A88444B5B889A421AD2424B1B887B8150
:10585000404B5A883F4B1A803E4A7B8953800FE069
:105860003C4B1A883B4B5B889A4209D9394B1B88C1
:105870007B81384B5A88374B1A80364A7B89538054
:10588000344B9B8845F21052934265D1314B5B8972
:105890001846FFF701FE0020FFF7EAFD2D4B5B895C
:1058A00001339BB21846FFF7F7FD0020FFF7E0FD3C
:1058B000284B5B8902339BB21846FFF7EDFD254B61
:1058C0001B88013B1B129BB21846FFF7D1FD214BF1
:1058D0005B8903339BB21846FFF7DEFD1D4B1B8827
:1058E000013B9BB2DBB29BB21846FFF7C1FD194BDF
:1058F0009B891846FFF7D0FD0020FFF7B9FD154B37
:105900009B8901339BB21846FFF7C6FD0020FFF7C5
:10591000AFFD104B9B8902339BB21846FFF7BCFDCD
:105920000C4B5B88013B1B129BB21846FFF7A0FD96
:10593000084B9B8903339BB21846FFF7ADFD054B1F
:105940005B88013B9BB2DBB29BB21846FFF790FD30
:105950003AE000BF181000201D4B5B891846FFF786
:105960009BFD0020FFF784FD0020FFF781FD184B11
:105970001B88013B1B129BB21846FFF779FD144BA5
:105980001B88013B9BB2DBB29BB21846FFF770FD50
:105990000F4B9B891846FFF77FFD0020FFF768FD3E
:1059A0000020FFF765FD0A4B5B88013B1B129BB291
:1059B0001846FFF75DFD064B5B88013B9BB2DBB2EF
:1059C0009BB21846FFF754FD00BF1037BD4680BD9F
:1059D0001810002080B582B000AF03463A60FB800B
:1059E0000B46BB80BA88FB8811461846FFF7A0FD1E
:1059F000FFF78EFD034B3A6892B25A8000BF08371A
:105A0000BD4680BD7E00006C80B582B000AF03460D
:105A1000FB71BE20FFF740FD0520FFF729FDFB7954
:105A20001846FAF77FFD10A3D3E90023FAF7E4FD47
:105A300002460B4610461946FBF7B6F803469BB2E2
:105A40001846FFF715FD0120FFF712FDFF20FFF7B5
:105A50000FFD0020FFF70CFD0020FFF709FD00BF40
:105A60000837BD4680BD00BF666666666666044050
:105A700080B582B000AF0346FB71584AFB79937141
:105A8000FB79002B51D1554BF0221A80534B4FF428
:105A9000A0725A80514B9B8845F21052934214D108
:105AA0004E4B4FF430521A814C4B4FF428525A81CE
:105AB0004A4B4FF42C529A81484B4FF4F0721A80A3
:105AC000464B4FF448725A8020E0444B9B8841F685
:105AD0006312934211D1414B2C221A813F4B2B224E
